:100000000C94D7000C94F4000C94F4000C94F400BD
:100010000C94F4000C94F4000C94F4000C94F40090
:100020000C94F4000C94F4000C94F4000C94F40080
:100030000C94F4000C94F4000C94F4000C94F40070
:100040000C94F4000C94F4000C94F4000C94F40060
:100050000C94F4000C94F4000C94F4000C94F40050
:100060000C94F4000C94F4000C94F4000C94F40040
:100070000C94F4000C94F4000C94F4000C94F40030
:100080000C94F4000C94F4000C94F4000C94F40020
:100090000C94F4000C94F4000C94F4000C94F40010
:1000A0000C94F4000C94F4000C94F4006E616E0057
:1000B000696E660000407A10F35A00A0724E18096B
:1000C0000010A5D4E80000E87648170000E40B54BF
:1000D000020000CA9A3B000000E1F505000080968E
:1000E0009800000040420F000000A08601000000C0
:1000F000102700000000E80300000000640000007A
:1001000000000A00000000000100000000002C7642
:10011000D888DC674F0823DFC1DFAE59E1B1B7965D
:10012000E5E3E453C63AE651997696E8E6C28426BA
:10013000EB898C9B62ED407C6FFCEFBC9C9F40F296
:10014000BAA56FA5F490055A2AF75C936B6CF96712
:100150006DC11BFCE0E40D47FEF520E6B500D0EDD7
:10016000902E0300943577050080841E080000203F
:100170004E0A000000C80C333333330F986E1283DD
:100180001141EF8D2114893BE65516CFFEE6DB18B1
:10019000D1844B381BF77C1D901DA4BBE424203276
:1001A00084725E228100C9F124ECA1E53D2711246F
:1001B0001FBECFEFDAE0DEBFCDBF11E0A0E0B1E0BF
:1001C000E2E5F4E102C005900D92A433B107D9F73E
:1001D00021E0A4E3B1E001C01D92A134B207E1F730
:1001E0000E94DA020C94270A0C940000AF92BF928E
:1001F000CF92DF92EF92FF920F931F93CF93DF93F3
:10020000E82FF0E0EE0FFF1FEA5FFE4FE080F18085
:10021000D701EC91C62EC1E0D0E0062E02C0CC0F73
:10022000DD1F0A94E2F7F0E0EC23FD235F0102C03A
:10023000B594A7946A95E2F7842F90E0A816B906C2
:10024000B9F502C0119604C0A0E0B0E000E010E0F3
:100250002A173B07B9F0EFE9FFE03197F1F700C04B
:100260000000F701608170E06C237D230C2C02C03C
:10027000759567950A94E2F7A616B70619F70F5F0A
:100280001F4FE0CFC901880F991F880F991F880F52
:10029000991F280F391FADECBCEC0E94FE07969504
:1002A000879596958795969587950817190718F459
:1002B00081E0842701C0842FDF91CF911F910F919E
:1002C000FF90EF90DF90CF90BF90AF900895CF93C5
:1002D000DF93C82FD62F29E130E040E00E94F600DE
:1002E00081112CC04C2F50E0FA01E050FF4F60818B
:1002F00081E090E00D2E02C0880F991F0A94E2F76A
:10030000262F30E0282339230D2E02C0359527955E
:100310000A94E2F72130310589F41AC0EC2FF0E09D
:10032000E050FF4F81E090E002C0880F991FDA95FE
:10033000E2F79081892B808380E011C029E130E0D1
:1003400041E06D2F8C2F0E94F6008111E7CF07C08E
:10035000FA01E050FF4F80958623808381E0DF9192
:10036000CF910895899A89988FEA94E00197F1F7DF
:1003700000C000000895CF93C82F662311F0889A1B
:1003800001C088985E985F9846984798CC230CF4F3
:100390005E9AC6FD5F9AC5FD469AC4FD479A0E94C3
:1003A000B2015E985F9846984798C3FD5E9AC2FD79
:1003B0005F9AC1FD469AC0FD479A0E94B201CF9153
:1003C000089560E00E94BB010895809A819A3F9A47
:1003D0003E9A579A569A2FEF80E792E0215080403C
:1003E0009040E1F700C00000469A479A0E94B2018F
:1003F0008FE090E40197F1F700C00000469A479A19
:100400000E94B2018FE090E40197F1F700C0000074
:10041000469A479A0E94B2018FE090E40197F1F763
:1004200000C000004798469A0E94B20188E20E94EC
:10043000E10188E00E94E10181E00E94E1018FE397
:100440009FE10197F1F700C0000082E00E94E10106
:100450008FE39FE10197F1F700C000008CE00E945C
:10046000E1010895823031F0833031F0813031F490
:1004700090E405C094E103C094E501C090E0282F0A
:1004800030E0309335012093340180E8890F0E94D9
:10049000E10108958A3079F4809134019091350119
:1004A0001816190624F480E00E94320208958F5F26
:1004B0000E943202089561E00E94BB010895CF932B
:1004C000DF93EC012196FC018081882329F00E94B2
:1004D0004A0289918111FBCFDF91CF910895CF938B
:1004E000DF93CDB7DEB7C055D1090FB6F894DEBFA4
:1004F0000FBECDBFAE014B5A5F4FFA0161917191B2
:10050000AF01CE0101960E946E09CE0101960E94B4
:100510005F02C05BDF4F0FB6F894DEBF0FBECDBFEA
:10052000DF91CF910895109235011092340181E04E
:100530000E94E1018FE39FE10197F1F700C0000005
:100540000895109235011092340182E00E94E10179
:100550008FE39FE10197F1F700C0000008955098E4
:10056000589A80E090E00E94E8098093400181E081
:1005700090E00E94F60990933F0180933E0183E052
:1005800090E00E94F00960933A0170933B018093E0
:100590003C0190933D0187E090E00E94F009609358
:1005A00036017093370180933801909339010E948E
:1005B000E50108950E94AF0202E111E0C1E2D1E03D
:1005C000609140016F5F6093400180913E01909186
:1005D0003F01029690933F0180933E0180913A0142
:1005E00090913B01A0913C01B0913D010396A11D6A
:1005F000B11D80933A0190933B01A0933C01B093CD
:100600003D01062E000C770B880B990B0E94880386
:100610002DEC3CEC4CE85FE30E941404609336013F
:1006200070933701809338019093390160E083E043
:100630000E946701882331F16091400180E090E0E1
:100640000E94FC0960913E0170913F0181E090E0C1
:100650000E94120A40913A0150913B0160913C0185
:1006600070913D0183E090E00E940A0A40913601BA
:1006700050913701609138017091390187E090E025
:100680000E940A0A0E9493020E94A10280913F01E7
:100690008F9380913E018F9380914001282F082EE7
:1006A000000C330B3F938F931F930F930E946F02A5
:1006B000809139018F93809138018F938091370118
:1006C0008F93809136018F9380913D018F9380911C
:1006D0003C018F9380913B018F9380913A018F93DE
:1006E000DF93CF930E946F029FEF23ED80E3915041
:1006F00020408040E1F700C000008DB79EB74096D3
:100700000FB6F8949EBF0FBE8DBF5ACFE89409C0B4
:1007100097FB3EF490958095709561957F4F8F4F34
:100720009F4F9923A9F0F92F96E9BB279395F6954A
:10073000879577956795B795F111F8CFFAF4BB0FC8
:1007400011F460FF1BC06F5F7F4F8F4F9F4F16C02C
:10075000882311F096E911C0772321F09EE8872FB6
:10076000762F05C0662371F096E8862F70E060E072
:100770002AF09A95660F771F881FDAF7880F9695EB
:10078000879597F9089597F99F6780E870E060E092
:1007900008959FEF80EC089500240A94161617061A
:1007A00018060906089500240A9412161306140662
:1007B00005060895092E0394000C11F4882352F0C5
:1007C000BB0F40F4BF2B11F460FF04C06F5F7F4F7D
:1007D0008F4F9F4F089557FD9058440F551F59F064
:1007E0005F3F71F04795880F97FB991F61F09F3F1E
:1007F00079F087950895121613061406551FF2CF47
:100800004695F1DF08C0161617061806991FF1CF96
:1008100086957105610508940895E894BB276627BD
:100820007727CB0197F908950E9427040C94DA03E7
:100830000E94CC0338F00E94D30320F0952311F0DE
:100840000C94C3030C94C90311240C940E040E944D
:10085000EB0370F3959FC1F3950F50E0551F629F16
:10086000F001729FBB27F00DB11D639FAA27F00D09
:10087000B11DAA1F649F6627B00DA11D661F829F30
:100880002227B00DA11D621F739FB00DA11D621F15
:10089000839FA00D611D221F749F3327A00D611D32
:1008A000231F849F600D211D822F762F6A2F112414
:1008B0009F5750409AF0F1F088234AF0EE0FFF1F47
:1008C000BB1F661F771F881F91505040A9F79E3F9E
:1008D000510580F00C94C3030C940E045F3FE4F3C5
:1008E000983ED4F3869577956795B795F795E795F4
:1008F0009F5FC1F7FE2B880F911D9695879597F9FD
:100900000895A0E1B0E0E7E8F4E00C940D087C0164
:100910001B016A01FC0117821682838181FF44C397
:100920009E012F5F3F4F3901F7019381F10193FD44
:10093000859193FF81911F01882309F431C385328A
:1009400039F493FD859193FF81911F01853239F42C
:10095000B70190E00E94320956016501E5CF10E031
:10096000512C912CFFE1F915D8F08B3279F038F445
:10097000803279F08332A1F4F92DF0612EC08D32EE
:1009800061F0803369F4292D21602DC0392D32604A
:10099000932E892D8460982E2AC0E92DE86015C019
:1009A00097FC2DC020ED280F2A3088F496FE06C053
:1009B0003AE0139F200D1124122F19C08AE0589E8F
:1009C000200D1124522EE92DE0629E2E10C08E3291
:1009D00031F496FCE5C2F92DF0649F2E08C08C36E8
:1009E00021F4292D2068922E02C0883641F4F101AD
:1009F00093FD859193FF81911F018111B3CF9BEBF3
:100A0000980F933020F4992D9061805E07C09BE988
:100A1000980F933008F066C1992D9F7E96FF16E0DF
:100A20009F73992E853619F49064992E08C08636E6
:100A300021F4392F3068932E02C01111115097FE06
:100A400007C01C3350F444244394410E27E00BC0EC
:100A5000183038F027E017E005C027E09CE3492E66
:100A600002C0212F412C560184E0A80EB11CF601D2
:100A70006081718182819381042DA3010E944408C9
:100A80006C01F981FC87F0FF02C0F3FF06C091FC06
:100A900006C092FE06C000E205C00DE203C00BE2F4
:100AA00001C000E08C858C7019F001115AC29BC204
:100AB00097FE10C04C0CFC85F4FF04C08A81813382
:100AC00009F44A94141474F528E0241578F588E0A4
:100AD000482E2CC096FC2AC0812F90E08C159D05D5
:100AE0009CF03CEFC3163FEFD30674F0892D80686D
:100AF000982E0AC0E2E0F0E0EC0FFD1FE10FF11DBF
:100B00008081803319F411501111F4CF97FE0EC07B
:100B100044244394410E812F90E0C816D9062CF44A
:100B20001C1904C04424439401C010E097FE06C081
:100B30001C141D0434F4C601019605C085E090E044
:100B400002C081E090E001110196112331F0212FC4
:100B500030E02F5F3F4F820F931F252D30E082172B
:100B6000930714F4581A01C0512C892D897049F447
:100B7000552039F0B70180E290E00E9432095A9482
:100B8000F7CF002329F0B701802F90E00E943209AF
:100B900093FC09C0552039F0B70180E390E00E9432
:100BA00032095A94F7CF97FE4CC04601D7FE02C0D7
:100BB000812C912CC60188199909F301E80FF91FBE
:100BC000FE87ED87960124193109388B2F87012F75
:100BD00010E01195019511093FEF8316930629F452
:100BE000B7018EE290E00E943209C814D9044CF09B
:100BF0008F8598898815990524F4ED85FE85818176
:100C000001C080E3F1E08F1A91082D853E852F5FAA
:100C10003F4F3E872D87801691062CF0B70190E05C
:100C20000E943209D9CFC814D90441F49A8196336D
:100C300020F4953319F43C8534FF81E3B70190E04B
:100C40004EC08A81813319F09C859F7E9C87B701B5
:100C500090E00E943209111105C094FC18C085E68D
:100C600090E017C0B7018EE290E00E9432091E5F4B
:100C700082E001E0080FF301E80FF11D8081B70168
:100C800090E00E943209802F0113F3CFE6CF85E474
:100C900090E0B7010E943209D7FC06C0C114D1040C
:100CA00041F4EC85E4FF05C0D194C194D1088DE2F4
:100CB00001C08BE2B70190E00E94320980E32AE094
:100CC000C216D1042CF08F5FFAE0CF1AD108F7CF0B
:100CD000B70190E00E943209B701C601C0960E9498
:100CE000320954C1833631F0833779F0833509F006
:100CF00056C020C0560132E0A30EB11CF60180811F
:100D0000898301E010E0630112C05601F2E0AF0EEA
:100D1000B11CF601C080D18096FE03C0612F70E047
:100D200002C06FEF7FEFC6010E9427098C01F92DE9
:100D3000FF7714C0560122E0A20EB11CF601C0805C
:100D4000D18096FE03C0612F70E002C06FEF7FEF8D
:100D5000C6010E941C098C01F92DF0689F2EF3FD3D
:100D60001AC0852D90E008171907A8F4B70180E292
:100D700090E00E9432095A94F4CFF60197FC8591D5
:100D800097FE81916F01B70190E00E9432095110E6
:100D90005A94015011090115110579F7F7C08436ED
:100DA00011F0893661F5560197FE09C024E0A20EC4
:100DB000B11CF60160817181828193810AC0F2E0E9
:100DC000AF0EB11CF60160817181072E000C880BFB
:100DD000990BF92DFF769F2E97FF09C0909580956E
:100DE000709561957F4F8F4F9F4FF0689F2E2AE03F
:100DF00030E0A3010E948A09C82EC6183FC0092D01
:100E0000853721F40F7E2AE030E01DC0097F8F3640
:100E100091F018F4883559F0C3C0803719F088373D
:100E200011F0BEC0006104FF09C0046007C094FE59
:100E300008C0066006C028E030E005C020E130E0D0
:100E400002C020E132E0560107FF09C084E0A80E8D
:100E5000B11CF601608171818281938108C0F2E04A
:100E6000AF0EB11CF6016081718180E090E0A301BA
:100E70000E948A09C82EC6180F77902E96FE0BC0C6
:100E8000092D0E7FC11650F494FE0AC092FC08C0D2
:100E9000092D0E7E05C0DC2C092D03C0DC2C01C001
:100EA000D12E04FF0DC0FE01EC0DF11D80818033B9
:100EB00011F4097E09C002FF06C0D394D39404C084
:100EC000802F867809F0D39403FD11C000FF06C07F
:100ED0001C2DD51480F4150D1D190DC0D51458F412
:100EE000B70180E290E00E943209D394F7CFD51485
:100EF00010F45D1801C0512C04FF10C0B70180E34D
:100F000090E00E94320902FF17C001FD03C088E78C
:100F100090E002C088E590E0B7010CC0802F867891
:100F200059F001FF02C08BE201C080E207FD8DE2B3
:100F3000B70190E00E943209C11638F4B70180E38E
:100F400090E00E9432091150F7CFCA94F301EC0DE2
:100F5000F11D8081B70190E00E943209C110F5CFE8
:100F600015C0F4E0F51560F584E0581A93FE1FC033
:100F7000011127C02C8523FF2AC00CEA10E0392D6F
:100F80003071932EF8018491811124C0552009F409
:100F9000E4CCB70180E290E00E9432095A94F6CF87
:100FA000F7018681978126C08FEF9FEF23C0B7019D
:100FB00080E290E00E9432095A945110F8CFD8CFC5
:100FC000512CB701802F90E00E943209D3CF00EB63
:100FD00010E0D5CF91108052B70190E00E94320905
:100FE0000F5F1F4FCFCF23E0251510F483E0BDCF57
:100FF000512CC0CF6096E2E10C942908A29FB00169
:10100000B39FC001A39F700D811D1124911DB29F3C
:10101000700D811D1124911D08952F923F924F92C2
:101020005F926F927F928F929F92AF92BF92CF9278
:10103000DF92EF92FF920F931F93CF93DF93CDB781
:10104000DEB7CA1BDB0B0FB6F894DEBF0FBECDBFF9
:1010500009942A88398848885F846E847D848C84CA
:101060009B84AA84B984C884DF80EE80FD800C81D3
:101070001B81AA81B981CE0FD11D0FB6F894DEBFB6
:101080000FBECDBFED010895283008F027E03327CB
:10109000DA01990F311D87FD916000966105710598
:1010A00039F432602E5F3D9330E32A95E1F70895DD
:1010B0009F3F30F080387105610509F03C5F3C5F6F
:1010C0003D93913008F08068911DDF93CF931F937B
:1010D0000F93FF92EF92192F987F9695E92F96958F
:1010E0009695E90FFF27E25FFE4F99273327EE24FD
:1010F000FF24A701E70105900894079428F4360F10
:10110000E71EF81E491F511D660F771F881F991F84
:101110000694A1F70590079428F4E70EF81E491FDE
:10112000561FC11D770F881F991F661F0694A1F7D0
:101130000590079428F4F80E491F561FC71FD11DAC
:10114000880F991F661F771F0694A1F705900794D3
:1011500020F4490F561FC71FD81F990F661F771F0E
:10116000881F0694A9F784911095177041F0D695C1
:10117000C79557954795F794E7941A95C1F7E4EB0F
:10118000F0E06894159015913591659195910590D1
:101190007FE27395E118F10A430B560BC90BD00996
:1011A000C0F7E10CF11E431F561FC91FD01D7EF46E
:1011B000703311F48A95E6CFE894015030F0080FAF
:1011C0000AF40027021708F4202F2395022F7A3300
:1011D00028F079E37D932A95E9F710C07D932A954D
:1011E00089F6069497956795379517951794E118A2
:1011F000F10A430B560BC90BD00998F023957E9149
:1012000073957A3308F070E37C932013B8F77E91DE
:1012100070617D9330F0839571E37D9370E32A953F
:10122000E1F71124EF90FF900F911F91CF91DF9183
:10123000992787FD90950895FC01059061507040B5
:101240000110D8F7809590958E0F9F1F0895FC018F
:101250006150704001900110D8F7809590958E0FE5
:101260009F1F08950F931F93CF93DF93FB0123815B
:1012700021FD03C08FEF9FEF2CC022FF16C04681D7
:101280005781248135814217530744F4A081B181ED
:101290009D012F5F3F4F318320838C9326813781BF
:1012A0002F5F3F4F3783268314C08B01EC01FB0176
:1012B0000084F185E02D0995892BE1F6D801169679
:1012C0008D919C911797019617969C938E931697E4
:1012D000CE01DF91CF911F910F910895AEE0B0E064
:1012E000E4E7F9E00C941B088C0186E08C831A83F8
:1012F00009838FEF9FE79E838D83CE0101960E9425
:101300008104EF81F885E00FF11F10822E96E4E052
:101310000C943708FA01AA27283051F1203181F1C5
:10132000E8946F936E7F6E5F7F4F8F4F9F4FAF4FED
:10133000B1E03ED0B4E03CD0670F781F891F9A1F00
:10134000A11D680F791F8A1F911DA11D6A0F711DB4
:10135000811D911DA11D20D009F468943F912AE0C0
:10136000269F11243019305D3193DEF6CF010895A8
:10137000462F4770405D4193B3E00FD0C9F7F6CFD9
:10138000462F4F70405D4A3318F0495D31FD4052A1
:10139000419302D0A9F7EACFB4E0A6959795879537
:1013A00077956795BA95C9F7009761057105089516
:1013B0009B01AC010A2E06945795479537952795C2
:1013C000BA95C9F7620F731F841F951FA01D08955A
:1013D000F999FECF92BD81BDF89A992780B50895FD
:1013E000A6E1B0E044E050E00C94190AA8E1B0E0B6
:1013F00042E050E00C94190A262FF999FECF1FBA4B
:1014000092BD81BD20BD0FB6F894FA9AF99A0FBE2D
:1014100001960895242F0E94FD09252F0E94FD09A1
:101420000C94120A0E94FC09272F0C94FD09DC0180
:10143000CB01FC01F999FECF06C0F2BDE1BDF89ADF
:10144000319600B40D9241505040B8F70895F89489
:02145000FFCFCC
:10145200FFFFFFFFFFFF00002300260029002C00F2
:101462002F0043383A2025642C4331363A20256434
:10147200000A4333323A20256C642C523A20252E3E
:0414820032660000CE
:00000001FF
