S00C0000554152542E73726563DC
S11300000C941B010C94BF030C94C9030C94D303EC
S11300100C94DD030C9443010C9443010C94E7030A
S11300200C9443010C9443010C9443010C9443013C
S11300300C9443010C9443010C9443010C9443012C
S11300400C9443010C9443010C9443010C9443011C
S11300500C9412040C9443010C9443010C9443013A
S11300600C9443010C9443030C9443010C944301FA
S11300700C9443010C9443010C9443010C944301EC
S11300800C9443010C9443010C9443010C944301DC
S11300900C9443010C9443010C9443010C944301CC
S11300A00C9443010C9443010C9443011505A205DF
S11300B0E404FE04A205A205A205A205A205A20568
S11300C0A205A205A2052305A205DD04A205A20539
S11300D0A2054605A205890508000000BE92244930
S11300E0123EABAAAA2ABECDCCCC4C3E0000008066
S11300F0BEABAAAAAA3E00000000BF000000803FD9
S11301000000000000084178D3BB4387D1133D1998
S11301100E3CC3BD4282AD2B3E68EC8276BED98FC5
S1130120E1A93E4C80EFFFBE01C4FF7F3F00000009
S113013000006E616E00696E660000407A10F35A2A
S113014000A0724E18090010A5D4E80000E8764813
S1130150170000E40B54020000CA9A3B000000E1BF
S1130160F505000080969800000040420F00000052
S1130170A08601000000102700000000E803000032
S113018000006400000000000A00000000000100FC
S1130190000000002C76D888DC674F0823DFC1DF1D
S11301A0AE59E1B1B796E5E3E453C63AE651997620
S11301B096E8E6C28426EB898C9B62ED407C6FFC5A
S11301C0EFBC9C9F40F2BAA56FA5F490055A2AF79C
S11301D05C936B6CF9676DC11BFCE0E40D47FEF5A5
S11301E020E6B500D0ED902E03009435770500800D
S11301F0841E080000204E0A000000C80C3333336C
S1130200330F986E12831141EF8D2114893BE6550B
S113021016CFFEE6DB18D1844B381BF77C1D901DEE
S1130220A4BBE424203284725E228100C9F124EC50
S1130230A1E53D27AB0511241FBECFEFDAE0DEBFF9
S1130240CDBF11E0A0E0B1E0EEE3FBE102C0059018
S11302500D92A83EB107D9F722E0A8EEB1E001C0A3
S11302601D92A632B207E1F711E0CBE1D1E004C060
S11302702197FE010E94BC0BCA31D107C9F70E9425
S11302806D040C949D0D0C940000ECE7F0E080816B
S11302908F738083808180648083EAE7F0E08081CB
S11302A0887F808380818760808380818068808369
S11302B0089585FF06C0EBE7F0E09081906290839B
S11302C005C0EBE7F0E090819F7D9083873241F495
S11302D0ECE7F0E090819F7390839081906C908321
S11302E0ECE7F0E09081907E90839081282F2F712D
S11302F0922B9083EAE7F0E0908190649083908160
S113030094FFFDCFEAE7F0E090819061908387321B
S113031041F4ECE7F0E080818F7380838081806416
S1130320808380917800909179000895CF93DF9332
S1130330FC01262F26952695269530E0220F331FA3
S1130340D901A65EBE4F0D90BC91A02DB183A083B0
S1130350E901C25FDE4F888199819383828367704C
S113036064839C9121E030E0A90102C0440F551F31
S11303706A95E2F7842F809589238C93A281B381B7
S11303808C91048002C0220F331F0A94E2F7282BB9
S11303902C93DF91CF910895CF93DF93FC01262F07
S11303A026952695269530E0220F331FD901A65EA7
S11303B0BE4F0D90BC91A02DB183A083E901C25F13
S11303C0DE4F8881998193838283E901CE5FDE4F7A
S11303D08881998195838483677066833C9181E0E9
S11303E090E0AC0102C0440F551F6A95E2F7242F38
S11303F0209523232C93A281B3812C91068002C0E3
S1130400880F991F0A94E2F7809582238C9381E0E8
S11304108783DF91CF910895899A89988FEA94E030
S11304200197F1F700C000000895CF93C82F662309
S113043011F0889A01C088985E985F98469847980A
S1130440CC230CF45E9AC6FD5F9AC5FD469AC4FDA2
S1130450479A0E940C025E985F9846984798C3FD9D
S11304605E9AC2FD5F9AC1FD469AC0FD479A0E94FA
S11304700C02CF91089560E00E9415020895809ABD
S1130480819A3F9A3E9A579A569A2FEF80E792E0C4
S1130490215080409040E1F700C00000469A479AFE
S11304A00E940C028FE090E40197F1F700C0000075
S11304B0469A479A0E940C028FE090E40197F1F764
S11304C000C00000469A479A0E940C028FE090E414
S11304D00197F1F700C000004798469A0E940C0269
S11304E088E20E943B0288E00E943B0281E00E9475
S11304F03B028FE39FE10197F1F700C0000082E027
S11305000E943B028FE39FE10197F1F700C00000D6
S11305108CE00E943B020895823031F0833031F048
S1130520813031F490E405C094E103C094E501C046
S113053090E0282F30E03093E9012093E80180E82F
S1130540890F0E943B0208958A3079F48091E80172
S11305509091E9011816190624F480E00E948C0297
S113056008958F5F0E948C02089561E00E94150235
S11305700895CF93DF93EC012196FC0180818823B9
S113058029F00E94A40289918111FBCFDF91CF91C0
S11305900895CF93DF93CDB7DEB7C055D1090FB619
S11305A0F894DEBF0FBECDBFAE014B5A5F4FFA01C8
S11305B061917191AF01CE0101960E94230DCE018C
S11305C001960E94B902C05BDF4F0FB6F894DEBFFC
S11305D00FBECDBFDF91CF9108951092E901109223
S11305E0E80181E00E943B028FE39FE10197F1F76C
S11305F000C0000008951092E9011092E80182E021
S11306000E943B028FE39FE10197F1F700C00000D5
S113061008950E94BF0620E030E040E851E40E94C3
S11306209D079B01AC0160E074E284E79BE40E94B7
S11306301E0620E030E040E85FE30E94B1050E941E
S113064090067093CD006093CC00EAECF0E08081DA
S113065086608083E9ECF0E080818861808380811A
S1130660806880830895E8ECF0E080818823ECF7CB
S11306708091CE000895E8ECF0E0908195FFFDCFE5
S11306808093CE0008951F920F920FB60F921124FB
S11306902F933F934F935F936F937F938F939F9386
S11306A0AF93BF93CF93DF93EF93FF93C091000178
S11306B0D09101010E9433038883E0910001F091FD
S11306C0010180818D3029F03196F0930101E0938E
S11306D00001FF91EF91DF91CF91BF91AF919F9175
S11306E08F917F916F915F914F913F912F910F90D7
S11306F00FBE0F901F901895E0910001F091010139
S113070080818D3049F4108283EF91E09093010150
S11307108093000181E0089580E00895CF93DF93F2
S1130720EC018881882331F021960E943B03899152
S11307308111FBCFDF91CF910895CF93DF93CDB794
S1130740DEB7E2970FB6F894DEBF0FBECDBFAE01A1
S1130750495C5F4FFA0161917191AF01CE0101963D
S11307600E94230DCE0101960E948E03E2960FB6DD
S1130770F894DEBF0FBECDBFDF91CF9108951F92D5
S11307800F920FB60F9211240F900FBE0F901F906F
S113079018951F920F920FB60F9211240F900FBE4F
S11307A00F901F9018951F920F920FB60F9211245D
S11307B00F900FBE0F901F9018951F920F920FB6B7
S11307C00F9211240F900FBE0F901F9018951F9237
S11307D00F920FB60F9211240F900FBE0F901F901F
S11307E01895E1E8F0E09081987F90839081892BBF
S11307F080830895EFE6F0E080818160808308952E
S1130800E0E8F0E080818C7F8083A1E8B0E08C9107
S1130810877E8C93808183708083808180838C9198
S11308208C9308951F920F920FB60F9211242F9359
S11308308F939F93AF93BF93EF93FF9387EF92ECC4
S113084090938500809384008091EF019091F00152
S1130850A091F101B091F2010196A11DB11D809307
S1130860EF019093F001A093F101B093F201AAEE8D
S1130870B1E0ED91FC911197208181E090E0149614
S11308800C9002C0880F991F0A94E2F78227808394
S1130890FF91EF91BF91AF919F918F912F910F9005
S11308A00FBE0F901F90189560E07BE480E090E00D
S11308B00E9409030E943F020E94450178940E940D
S11308C0000485E00E94F1030E94FA0387EF92EC92
S11308D090938500809384000895CF93DF93CDB7E0
S11308E0DEB72C970FB6F894DEBF0FBECDBF0E94C3
S11308F0540468E1CE0101960E94CC01E981FA8199
S1130900208181E090E00F8002C0880F991F0A9433
S1130910E2F7822B808303EF11E00F2EF6E2EF2E35
S1130920F1E0FF2EF02D0F2EF7E72F2EF1E03F2EF2
S1130930F02D0F2EFBE64F2EF1E05F2EF02D0F2E43
S1130940F1E56F2EF1E07F2EF02D0F2EFAEE8F2EB3
S1130950F1E09F2EF02D0F2EF5E3AF2EF1E0BF2E28
S1130960F02D0F2EF9E2CF2EF1E0DF2EF02D0E94B4
S11309707C038823E1F30E94ED020E94FB021F9393
S11309800F93FF92EF920E94C9020F900F900F9065
S11309900F90D80111968C9111978111E8CFEC91A9
S11309A08E2F90E0FC01E154F109E631F10508F0E5
S11309B0C9C0EA5AFF4F0C94BC0BDF92CF920E943D
S11309C09D030F900F90D3CFD401ED91FC9111971B
S11309D0808190E014960C9002C0959587950A94B6
S11309E0E2F7817099279F938F93BF92AF920E94F1
S11309F09D030F900F900F900F90B9CFED81FE8162
S1130A00808190E00F8002C0959587950A94E2F763
S1130A10817099279F938F937F926F920E949D0379
S1130A200F900F900F900F90A2CF85E00E94590174
S1130A309F938F935F924F920E949D030F900F900C
S1130A400F900F9094CF85E00E945901BC0180E083
S1130A5090E00E94BF0620E030EC4FE754E40E948F
S1130A601E0620E030E040EA50E40E949D079F9378
S1130A708F937F936F933F922F920E949D030F90C9
S1130A800F900F900F900F900F9071CF84E00E9401
S1130A905901BC0180E090E00E94BF0669877A8713
S1130AA08B879C879B01AC0160E070EC8FE794E43A
S1130AB00E94B1059B01AC0169857A858B859C8573
S1130AC00E941E060E94550728EA36EC4DE251E4C6
S1130AD00E94B2059B01AC0160E070EB86E595E4F1
S1130AE00E941E0623E333E948E853E40E94B1055B
S1130AF09F938F937F936F93E5E9F1E0FF93EF93D7
S1130B000E949D030F900F900F900F900F900F90E5
S1130B102ECF8091F2018F938091F1018F93809178
S1130B20F0018F938091EF018F938DEA91E09F9371
S1130B308F930E949D030F900F900F900F900F9032
S1130B400F9015CFE5EDF1E0FF93EF930E949D0325
S1130B500F900F900CCF6CE08AEE91E00E9496010A
S1130B6008955058BB27AA270E94C9050C9413075F
S1130B700E94050738F00E940C0720F039F49F3FCB
S1130B8019F426F40C9402070EF4E095E7FB0C9498
S1130B90FC06E92F0E94240758F3BA17620773076B
S1130BA08407950720F079F4A6F50C9446070EF413
S1130BB0E0950B2EBA2FA02D0B01B90190010C0169
S1130BC0CA01A0011124FF27591B99F0593F50F481
S1130BD0503E68F11A16F040A22F232F342F4427D9
S1130BE0585FF3CF469537952795A795F0405395D1
S1130BF0C9F77EF41F16BA0B620B730B840BBAF0A1
S1130C009150A1F0FF0FBB1F661F771F881FC2F70B
S1130C100EC0BA0F621F731F841F48F4879577951F
S1130C206795B795F7959E3F08F0B0CF9395880FD9
S1130C3008F09927EE0F9795879508950E9432063C
S1130C400C9413070E940C0758F00E94050740F00B
S1130C5029F45F3F29F00C94FC0651110C944707CA
S1130C600C9402070E94240768F39923B1F35523D7
S1130C7091F3951B550BBB27AA27621773078407AB
S1130C8038F09F5F5F4F220F331F441FAA1FA9F341
S1130C9035D00E2E3AF0E0E832D091505040E6952F
S1130CA0001CCAF72BD0FE2F29D0660F771F881F90
S1130CB0BB1F261737074807AB07B0E809F0BB0B83
S1130CC0802DBF01FF2793585F4F3AF09E3F510597
S1130CD078F00C94FC060C9447075F3FE4F3983ECD
S1130CE0D4F3869577956795B795F7959F5FC9F780
S1130CF0880F911D9695879597F90895E1E0660F01
S1130D00771F881FBB1F621773078407BA0720F079
S1130D10621B730B840BBA0BEE1F88F7E0950895E2
S1130D200E942C0788F09F5798F0B92F9927B75144
S1130D30B0F0E1F0660F771F881F991F1AF0BA957B
S1130D40C9F714C0B13091F00E944607B1E008958C
S1130D500C944607672F782F8827B85F39F0B93F7E
S1130D60CCF3869577956795B395D9F73EF490952E
S1130D708095709561957F4F8F4F9F4F0895E894AC
S1130D8009C097FB3EF490958095709561957F4FCF
S1130D908F4F9F4F9923A9F0F92F96E9BB2793957D
S1130DA0F695879577956795B795F111F8CFFAF48D
S1130DB0BB0F11F460FF1BC06F5F7F4F8F4F9F4FBE
S1130DC016C0882311F096E911C0772321F09EE81C
S1130DD0872F762F05C0662371F096E8862F70E082
S1130DE060E02AF09A95660F771F881FDAF7880F5C
S1130DF09695879597F9089597F99F6780E870E02D
S1130E0060E008959FEF80EC089500240A9416167C
S1130E10170618060906089500240A9412161306E4
S1130E20140605060895092E0394000C11F4882372
S1130E3052F0BB0F40F4BF2B11F460FF04C06F5F8E
S1130E407F4F8F4F9F4F089557FD9058440F551F64
S1130E5059F05F3F71F04795880F97FB991F61F038
S1130E609F3F79F087950895121613061406551FAF
S1130E70F2CF4695F1DF08C0161617061806991F1B
S1130E80F1CF86957105610508940895E894BB2710
S1130E9066277727CB0197F9089516F00C940A0872
S1130EA00C94020768940C94FC060E942C07A8F387
S1130EB09923C1F3AEF3DF93CF931F930F93FF9264
S1130EC0C92FDD2788232AF02197660F771F881FF3
S1130ED0DAF720E030E040E85FEB9FE3883920F068
S1130EE0803E38F021968F770E94B205E8EDF0E05D
S1130EF004C00E94B205E5E0F1E00E9418088B01ED
S1130F00BE01EC01FB2E6F5771097595771F880B95
S1130F10990B0E94C10628E132E741E35FE30E9496
S1130F20B007AF2D9801AE01FF900F911F91CF91A3
S1130F30DF910E94C9050C9413070E94B0070C941A
S1130F4013070E94050738F00E940C0720F0952330
S1130F5011F00C94FC060C94020711240C9447071E
S1130F600E94240770F3959FC1F3950F50E0551F1D
S1130F70629FF001729FBB27F00DB11D639FAA27EA
S1130F80F00DB11DAA1F649F6627B00DA11D661F39
S1130F90829F2227B00DA11D621F739FB00DA11D5A
S1130FA0621F839FA00D611D221F749F3327A00D14
S1130FB0611D231F849F600D211D822F762F6A2FB0
S1130FC011249F5750409AF0F1F088234AF0EE0F15
S1130FD0FF1FBB1F661F771F881F91505040A9F742
S1130FE09E3F510580F00C94FC060C9447075F3F2C
S1130FF0E4F3983ED4F3869577956795B795F7957E
S1131000E7959F5FC1F7FE2B880F911D96958795F5
S113101097F908959F3F31F0915020F48795779583
S11310206795B795880F911D9695879597F90895BB
S1131030DF93CF931F930F93FF92EF92DF927B0185
S11310408C01689406C0DA2EEF010E94B007FE01FD
S1131050E894A5912591359145915591A6F3EF0119
S11310600E94C905FE019701A801DA9469F7DF908F
S1131070EF90FF900F911F91CF91DF910895A0E120
S1131080B0E0E5E4F8E00C94C20B7C011B016A01BA
S1131090FC0117821682838181FF44C39E012F5F66
S11310A03F4F3901F7019381F10193FD859193FF3E
S11310B081911F01882309F431C3853239F493FDEA
S11310C0859193FF81911F01853239F4B70190E036
S11310D00E94E70C56016501E5CF10E0512C912CDC
S11310E0FFE1F915D8F08B3279F038F4803279F0D9
S11310F08332A1F4F92DF0612EC08D3261F080337A
S113110069F4292D21602DC0392D3260932E892D4B
S11311108460982E2AC0E92DE86015C097FC2DC084
S113112020ED280F2A3088F496FE06C03AE0139F7B
S1131130200D1124122F19C08AE0589E200D11246D
S1131140522EE92DE0629E2E10C08E3231F496FCB0
S1131150E5C2F92DF0649F2E08C08C3621F4292DA8
S11311602068922E02C0883641F4F10193FD8591E6
S113117093FF81911F018111B3CF9BEB980F9330A3
S113118020F4992D9061805E07C09BE9980F9330FD
S113119008F066C1992D9F7E96FF16E09F73992EE5
S11311A0853619F49064992E08C0863621F4392FB7
S11311B03068932E02C01111115097FE07C01C33E2
S11311C050F444244394410E27E00BC0183038F007
S11311D027E017E005C027E09CE3492E02C0212F39
S11311E0412C560184E0A80EB11CF6016081718186
S11311F082819381042DA3010E94F90B6C01F98172
S1131200FC87F0FF02C0F3FF06C091FC06C092FE0B
S113121006C000E205C00DE203C00BE201C000E01D
S11312208C858C7019F001115AC29BC297FE10C0B4
S11312304C0CFC85F4FF04C08A81813309F44A9480
S1131240141474F528E0241578F588E0482E2CC091
S113125096FC2AC0812F90E08C159D059CF03CEFF4
S1131260C3163FEFD30674F0892D8068982E0AC008
S1131270E2E0F0E0EC0FFD1FE10FF11D808180330F
S113128019F411501111F4CF97FE0EC04424439465
S1131290410E812F90E0C816D9062CF41C1904C005
S11312A04424439401C010E097FE06C01C141D049E
S11312B034F4C601019605C085E090E002C081E0E7
S11312C090E001110196112331F0212F30E02F5FBE
S11312D03F4F820F931F252D30E08217930714F49C
S11312E0581A01C0512C892D897049F4552039F0C0
S11312F0B70180E290E00E94E70C5A94F7CF0023F4
S113130029F0B701802F90E00E94E70C93FC09C0FC
S1131310552039F0B70180E390E00E94E70C5A941D
S1131320F7CF97FE4CC04601D7FE02C0812C912C0A
S1131330C60188199909F301E80FF91FFE87ED87A3
S1131340960124193109388B2F87012F10E011954C
S1131350019511093FEF8316930629F4B7018EE234
S113136090E00E94E70CC814D9044CF08F8598894A
S11313708815990524F4ED85FE85818101C080E3FB
S1131380F1E08F1A91082D853E852F5F3F4F3E87F0
S11313902D87801691062CF0B70190E00E94E70C8F
S11313A0D9CFC814D90441F49A81963320F49533E3
S11313B019F43C8534FF81E3B70190E04EC08A8183
S11313C0813319F09C859F7E9C87B70190E00E9431
S11313D0E70C111105C094FC18C085E690E017C015
S11313E0B7018EE290E00E94E70C1E5F82E001E00C
S11313F0080FF301E80FF11D8081B70190E00E940E
S1131400E70C802F0113F3CFE6CF85E490E0B7011A
S11314100E94E70CD7FC06C0C114D10441F4EC854A
S1131420E4FF05C0D194C194D1088DE201C08BE2E0
S1131430B70190E00E94E70C80E32AE0C216D104D1
S11314402CF08F5FFAE0CF1AD108F7CFB70190E004
S11314500E94E70CB701C601C0960E94E70C54C174
S1131460833631F0833779F0833509F056C020C0D4
S1131470560132E0A30EB11CF6018081898301E09C
S113148010E0630112C05601F2E0AF0EB11CF60188
S1131490C080D18096FE03C0612F70E002C06FEF60
S11314A07FEFC6010E94DC0C8C01F92DFF7714C07C
S11314B0560122E0A20EB11CF601C080D18096FE36
S11314C003C0612F70E002C06FEF7FEFC6010E947E
S11314D0D10C8C01F92DF0689F2EF3FD1AC0852DD7
S11314E090E008171907A8F4B70180E290E00E9481
S11314F0E70C5A94F4CFF60197FC859197FE8191FD
S11315006F01B70190E00E94E70C51105A9401500A
S113151011090115110579F7F7C0843611F08936E0
S113152061F5560197FE09C024E0A20EB11CF60134
S113153060817181828193810AC0F2E0AF0EB11C97
S1131540F60160817181072E000C880B990BF92D2F
S1131550FF769F2E97FF09C09095809570956195B1
S11315607F4F8F4F9F4FF0689F2E2AE030E0A301FA
S11315700E943F0DC82EC6183FC0092D853721F49F
S11315800F7E2AE030E01DC0097F8F3691F018F4F9
S1131590883559F0C3C0803719F0883711F0BEC0C0
S11315A0006104FF09C0046007C094FE08C006601F
S11315B006C028E030E005C020E130E002C020E1B0
S11315C032E0560107FF09C084E0A80EB11CF60101
S11315D0608171818281938108C0F2E0AF0EB11CF9
S11315E0F6016081718180E090E0A3010E943F0DCB
S11315F0C82EC6180F77902E96FE0BC0092D0E7FAD
S1131600C11650F494FE0AC092FC08C0092D0E7E47
S113161005C0DC2C092D03C0DC2C01C0D12E04FF35
S11316200DC0FE01EC0DF11D8081803311F4097EA3
S113163009C002FF06C0D394D39404C0802F8678D7
S113164009F0D39403FD11C000FF06C01C2DD5146E
S113165080F4150D1D190DC0D51458F4B70180E29E
S113166090E00E94E70CD394F7CFD51410F45D18E2
S113167001C0512C04FF10C0B70180E390E00E9428
S1131680E70C02FF17C001FD03C088E790E002C029
S113169088E590E0B7010CC0802F867859F001FFEF
S11316A002C08BE201C080E207FD8DE2B70190E049
S11316B00E94E70CC11638F4B70180E390E00E9461
S11316C0E70C1150F7CFCA94F301EC0DF11D8081A2
S11316D0B70190E00E94E70CC110F5CF15C0F4E00B
S11316E0F51560F584E0581A93FE1FC0011127C058
S11316F02C8523FF2AC002E311E0392D3071932E8B
S1131700F8018491811124C0552009F4E4CCB70177
S113171080E290E00E94E70C5A94F6CFF7018681AC
S1131720978126C08FEF9FEF23C0B70180E290E03E
S11317300E94E70C5A945110F8CFD8CF512CB7011E
S1131740802F90E00E94E70CD3CF06E311E0D5CFC1
S113175091108052B70190E00E94E70C0F5F1F4F79
S1131760CFCF23E0251510F483E0BDCF512CC0CF9B
S11317706096E2E10C94DE0BEE0FFF1F0590F491EE
S1131780E02D09942F923F924F925F926F927F9235
S11317908F929F92AF92BF92CF92DF92EF92FF927D
S11317A00F931F93CF93DF93CDB7DEB7CA1BDB0B29
S11317B00FB6F894DEBF0FBECDBF09942A883988CE
S11317C048885F846E847D848C849B84AA84B984D5
S11317D0C884DF80EE80FD800C811B81AA81B981E1
S11317E0CE0FD11D0FB6F894DEBF0FBECDBFED01F5
S11317F00895283008F027E03327DA01990F311DC6
S113180087FD916000966105710539F432602E5FA1
S11318103D9330E32A95E1F708959F3F30F08038F7
S11318207105610509F03C5F3C5F3D93913008F020
S11318308068911DDF93CF931F930F93FF92EF92D4
S1131840192F987F9695E92F96959695E90FFF277E
S1131850EC56FE4F99273327EE24FF24A701E70116
S113186005900894079428F4360FE71EF81E491FC4
S1131870511D660F771F881F991F0694A1F70590C5
S1131880079428F4E70EF81E491F561FC11D770F51
S1131890881F991F661F0694A1F70590079428F4E2
S11318A0F80E491F561FC71FD11D880F991F661FA9
S11318B0771F0694A1F70590079420F4490F561F4B
S11318C0C71FD81F990F661F771F881F0694A9F793
S11318D084911095177041F0D695C7955795479503
S11318E0F794E7941A95C1F7EAE3F1E06894159048
S11318F0159135916591959105907FE27395E11865
S1131900F10A430B560BC90BD009C0F7E10CF11EC9
S1131910431F561FC91FD01D7EF4703311F48A95DE
S1131920E6CFE894015030F0080F0AF400270217BC
S113193008F4202F2395022F7A3328F079E37D933E
S11319402A95E9F710C07D932A9589F60694979510
S11319506795379517951794E118F10A430B560BC1
S1131960C90BD00998F023957E9173957A3308F0CA
S113197070E37C932013B8F77E9170617D9330F00F
S1131980839571E37D9370E32A95E1F71124EF9039
S1131990FF900F911F91CF91DF91992787FD90952B
S11319A00895FC010590615070400110D8F78095AE
S11319B090958E0F9F1F0895FC0161507040019017
S11319C00110D8F7809590958E0F9F1F08950F935F
S11319D01F93CF93DF93FB01238121FD03C08FEF7E
S11319E09FEF2CC022FF16C0468157812481358188
S11319F04217530744F4A081B1819D012F5F3F4FEB
S1131A00318320838C93268137812F5F3F4F378327
S1131A10268314C08B01EC01FB010084F185E02DC9
S1131A200995892BE1F6D80116968D919C9117970B
S1131A30019617969C938E931697CE01DF91CF91C2
S1131A401F910F910895AEE0B0E0E9E2FDE00C943F
S1131A50D00B8C0186E08C831A8309838FEF9FE778
S1131A609E838D83CE0101960E943F08EF81F88505
S1131A70E00FF11F10822E96E4E00C94EC0BFA01B7
S1131A80AA27283051F1203181F1E8946F936E7FB9
S1131A906E5F7F4F8F4F9F4FAF4FB1E03ED0B4E0AA
S1131AA03CD0670F781F891F9A1FA11D680F791FEB
S1131AB08A1F911DA11D6A0F711D811D911DA11DFC
S1131AC020D009F468943F912AE0269F112430190C
S1131AD0305D3193DEF6CF010895462F4770405DA7
S1131AE04193B3E00FD0C9F7F6CF462F4F70405D56
S1131AF04A3318F0495D31FD4052419302D0A9F7B1
S1131B00EACFB4E0A6959795879577956795BA95AA
S1131B10C9F700976105710508959B01AC010A2E70
S1131B2006945795479537952795BA95C9F7620F47
S1111B30731F841F951FA01D0895F894FFCF06
S1131B3EF30100002300260029002C002F000000D2
S1131B4E240027002A002D00300000002500280064
S1131B5E2B002E00310025730041546D65676133EF
S1131B6E3255340D005374616E6A65206372766566
S1131B7E6E652064696F6465206A652025642E0D88
S1131B8E005374616E6A65207469706B616C6120B8
S1131B9E4430206A652025642E0D004144433520CF
S1131BAE3D2025752E0D004E61706F6E206E6120E6
S1131BBE70696E752041444335206A6520252E33A5
S1131BCE66562E0D0054656D706572617475726182
S1131BDE206A6520252E336620432E0D0056726929
S1131BEE6A656D652072616461206D696B726F75D3
S1131BFE707261766C6A616361206A6520256C750A
S1131C0E20732E0D004E65697370726176616E20BD
S10B1C1E756E6F73210D0000C7
S9030000FC
